{
  "contractName": "Faucet",
  "abi": [
    {
      "inputs": [
        {
          "internalType": "uint256",
          "name": "_amount",
          "type": "uint256"
        }
      ],
      "stateMutability": "nonpayable",
      "type": "constructor"
    },
    {
      "anonymous": false,
      "inputs": [
        {
          "indexed": true,
          "internalType": "address",
          "name": "recipient",
          "type": "address"
        },
        {
          "indexed": false,
          "internalType": "string",
          "name": "token",
          "type": "string"
        },
        {
          "indexed": false,
          "internalType": "uint256",
          "name": "amount",
          "type": "uint256"
        }
      ],
      "name": "TokensSent",
      "type": "event"
    },
    {
      "inputs": [],
      "name": "amount",
      "outputs": [
        {
          "internalType": "uint256",
          "name": "",
          "type": "uint256"
        }
      ],
      "stateMutability": "view",
      "type": "function",
      "constant": true
    },
    {
      "inputs": [],
      "name": "owner",
      "outputs": [
        {
          "internalType": "address",
          "name": "",
          "type": "address"
        }
      ],
      "stateMutability": "view",
      "type": "function",
      "constant": true
    },
    {
      "inputs": [
        {
          "internalType": "string",
          "name": "",
          "type": "string"
        }
      ],
      "name": "testTokenSymbols",
      "outputs": [
        {
          "internalType": "string",
          "name": "",
          "type": "string"
        }
      ],
      "stateMutability": "view",
      "type": "function",
      "constant": true
    },
    {
      "inputs": [
        {
          "internalType": "string",
          "name": "",
          "type": "string"
        }
      ],
      "name": "testTokens",
      "outputs": [
        {
          "internalType": "address",
          "name": "",
          "type": "address"
        }
      ],
      "stateMutability": "view",
      "type": "function",
      "constant": true
    },
    {
      "inputs": [
        {
          "internalType": "string",
          "name": "_name",
          "type": "string"
        },
        {
          "internalType": "string",
          "name": "_symbol",
          "type": "string"
        },
        {
          "internalType": "address",
          "name": "_address",
          "type": "address"
        }
      ],
      "name": "addTestToken",
      "outputs": [],
      "stateMutability": "nonpayable",
      "type": "function"
    },
    {
      "inputs": [
        {
          "internalType": "string",
          "name": "_name",
          "type": "string"
        }
      ],
      "name": "removeTestToken",
      "outputs": [],
      "stateMutability": "nonpayable",
      "type": "function"
    },
    {
      "inputs": [
        {
          "internalType": "string",
          "name": "_token",
          "type": "string"
        }
      ],
      "name": "requestTokens",
      "outputs": [],
      "stateMutability": "nonpayable",
      "type": "function"
    }
  ],
  "bytecode": "0x608060405234801561000f575f80fd5b50604051610e2c380380610e2c83398101604081905261002e91610047565b5f80546001600160a01b0319163317905560015561005e565b5f60208284031215610057575f80fd5b5051919050565b610dc18061006b5f395ff3fe608060405234801561000f575f80fd5b506004361061007a575f3560e01c80638600ef4f116100585780638600ef4f146100cf5780638da5cb5b146100e2578063aa8c217c14610126578063cabcddd81461013d575f80fd5b80631e1398411461007e57806324ccd1d0146100935780634294d339146100a6575b5f80fd5b61009161008c366004610a19565b61017e565b005b6100916100a1366004610aa4565b6103e7565b6100b96100b4366004610aa4565b61068f565b6040516100c69190610b49565b60405180910390f35b6100916100dd366004610aa4565b610732565b5f546101019073ffffffffffffffffffffffffffffffffffffffff1681565b60405173ffffffffffffffffffffffffffffffffffffffff90911681526020016100c6565b61012f60015481565b6040519081526020016100c6565b61010161014b366004610aa4565b805160208183018101805160028252928201919093012091525473ffffffffffffffffffffffffffffffffffffffff1681565b5f5473ffffffffffffffffffffffffffffffffffffffff163314610229576040517f08c379a000000000000000000000000000000000000000000000000000000000815260206004820152602560248201527f4f6e6c7920746865206f776e65722063616e2063616c6c20746869732066756e60448201527f6374696f6e00000000000000000000000000000000000000000000000000000060648201526084015b60405180910390fd5b73ffffffffffffffffffffffffffffffffffffffff81166102a6576040517f08c379a000000000000000000000000000000000000000000000000000000000815260206004820152601560248201527f496e76616c696420746f6b656e206164647265737300000000000000000000006044820152606401610220565b5f73ffffffffffffffffffffffffffffffffffffffff166002846040516102cd9190610b62565b9081526040519081900360200190205473ffffffffffffffffffffffffffffffffffffffff161461035a576040517f08c379a000000000000000000000000000000000000000000000000000000000815260206004820152601460248201527f546f6b656e20616c7265616479206578697374730000000000000000000000006044820152606401610220565b8060028460405161036b9190610b62565b90815260200160405180910390205f6101000a81548173ffffffffffffffffffffffffffffffffffffffff021916908373ffffffffffffffffffffffffffffffffffffffff160217905550816003846040516103c79190610b62565b908152602001604051809103902090816103e19190610c1c565b50505050565b5f73ffffffffffffffffffffffffffffffffffffffff1660028260405161040e9190610b62565b9081526040519081900360200190205473ffffffffffffffffffffffffffffffffffffffff160361049b576040517f08c379a000000000000000000000000000000000000000000000000000000000815260206004820152601460248201527f546f6b656e20646f6573206e6f742065786973740000000000000000000000006044820152606401610220565b5f6002826040516104ac9190610b62565b908152604051908190036020018120546001547f70a0823100000000000000000000000000000000000000000000000000000000835230600484015273ffffffffffffffffffffffffffffffffffffffff90911692509082906370a0823190602401602060405180830381865afa158015610529573d5f803e3d5ffd5b505050506040513d601f19601f8201168201806040525081019061054d9190610d34565b10156105b5576040517f08c379a000000000000000000000000000000000000000000000000000000000815260206004820152601b60248201527f496e73756666696369656e74206661756365742062616c616e636500000000006044820152606401610220565b6001546040517fa9059cbb000000000000000000000000000000000000000000000000000000008152336004820152602481019190915273ffffffffffffffffffffffffffffffffffffffff82169063a9059cbb906044016020604051808303815f875af1158015610629573d5f803e3d5ffd5b505050506040513d601f19601f8201168201806040525081019061064d9190610d4b565b5060015460405133917f875b497636aa70490a09bb0713e19a7ffc239de4b79c3989ea4e768efe08cbd091610683918691610d6a565b60405180910390a25050565b8051602081830181018051600382529282019190930120915280546106b390610b7d565b80601f01602080910402602001604051908101604052809291908181526020018280546106df90610b7d565b801561072a5780601f106107015761010080835404028352916020019161072a565b820191905f5260205f20905b81548152906001019060200180831161070d57829003601f168201915b505050505081565b5f5473ffffffffffffffffffffffffffffffffffffffff1633146107d8576040517f08c379a000000000000000000000000000000000000000000000000000000000815260206004820152602560248201527f4f6e6c7920746865206f776e65722063616e2063616c6c20746869732066756e60448201527f6374696f6e0000000000000000000000000000000000000000000000000000006064820152608401610220565b5f73ffffffffffffffffffffffffffffffffffffffff166002826040516107ff9190610b62565b9081526040519081900360200190205473ffffffffffffffffffffffffffffffffffffffff160361088c576040517f08c379a000000000000000000000000000000000000000000000000000000000815260206004820152601460248201527f546f6b656e20646f6573206e6f742065786973740000000000000000000000006044820152606401610220565b60028160405161089c9190610b62565b90815260405190819003602001812080547fffffffffffffffffffffffff00000000000000000000000000000000000000001690556003906108df908390610b62565b90815260200160405180910390205f6108f891906108fb565b50565b50805461090790610b7d565b5f825580601f10610916575050565b601f0160209004905f5260205f20908101906108f891905b80821115610941575f815560010161092e565b5090565b7f4e487b71000000000000000000000000000000000000000000000000000000005f52604160045260245ffd5b5f82601f830112610981575f80fd5b813567ffffffffffffffff8082111561099c5761099c610945565b604051601f83017fffffffffffffffffffffffffffffffffffffffffffffffffffffffffffffffe0908116603f011681019082821181831017156109e2576109e2610945565b816040528381528660208588010111156109fa575f80fd5b836020870160208301375f602085830101528094505050505092915050565b5f805f60608486031215610a2b575f80fd5b833567ffffffffffffffff80821115610a42575f80fd5b610a4e87838801610972565b94506020860135915080821115610a63575f80fd5b50610a7086828701610972565b925050604084013573ffffffffffffffffffffffffffffffffffffffff81168114610a99575f80fd5b809150509250925092565b5f60208284031215610ab4575f80fd5b813567ffffffffffffffff811115610aca575f80fd5b610ad684828501610972565b949350505050565b5f5b83811015610af8578181015183820152602001610ae0565b50505f910152565b5f8151808452610b17816020860160208601610ade565b601f017fffffffffffffffffffffffffffffffffffffffffffffffffffffffffffffffe0169290920160200192915050565b602081525f610b5b6020830184610b00565b9392505050565b5f8251610b73818460208701610ade565b9190910192915050565b600181811c90821680610b9157607f821691505b602082108103610bc8577f4e487b71000000000000000000000000000000000000000000000000000000005f52602260045260245ffd5b50919050565b601f821115610c17575f81815260208120601f850160051c81016020861015610bf45750805b601f850160051c820191505b81811015610c1357828155600101610c00565b5050505b505050565b815167ffffffffffffffff811115610c3657610c36610945565b610c4a81610c448454610b7d565b84610bce565b602080601f831160018114610c9c575f8415610c665750858301515b7fffffffffffffffffffffffffffffffffffffffffffffffffffffffffffffffff600386901b1c1916600185901b178555610c13565b5f858152602081207fffffffffffffffffffffffffffffffffffffffffffffffffffffffffffffffe08616915b82811015610ce857888601518255948401946001909101908401610cc9565b5085821015610d2457878501517fffffffffffffffffffffffffffffffffffffffffffffffffffffffffffffffff600388901b60f8161c191681555b5050505050600190811b01905550565b5f60208284031215610d44575f80fd5b5051919050565b5f60208284031215610d5b575f80fd5b81518015158114610b5b575f80fd5b604081525f610d7c6040830185610b00565b9050826020830152939250505056fea2646970667358221220065246ac8225ed7443162c61415e73d7d2489fb23eedcc144bcf29ea0e177edd64736f6c63430008150033",
  "immutableReferences": {},
  "source": "// SPDX-License-Identifier: MIT\npragma solidity ^0.8.0;\n\nimport \"@openzeppelin/contracts/token/ERC20/IERC20.sol\";\n\ncontract Faucet {\n    // The address of the owner of the faucet\n    address public owner;\n\n    // The amount of tokens to send per request\n    uint256 public amount;\n\n    // The mapping of test tokens to their addresses\n    mapping(string => address) public testTokens;\n    mapping(string => string) public testTokenSymbols; // Add mapping for token symbols\n\n    // The event that is emitted when tokens are sent\n    event TokensSent(address indexed recipient, string token, uint256 amount);\n\n    // The modifier that checks if the caller is the owner\n    modifier onlyOwner() {\n        require(msg.sender == owner, \"Only the owner can call this function\");\n        _;\n    }\n\n    // The constructor that sets the owner and the amount\n    constructor(uint256 _amount) {\n        owner = msg.sender;\n        amount = _amount;\n    }\n\n    // The function that allows the owner to add a test token\n    function addTestToken(string memory _name, string memory _symbol, address _address) public onlyOwner {\n        require(_address != address(0), \"Invalid token address\");\n        require(testTokens[_name] == address(0), \"Token already exists\");\n        testTokens[_name] = _address;\n        testTokenSymbols[_name] = _symbol; // Store the token symbol\n    }\n\n    // The function that allows the owner to remove a test token\n    function removeTestToken(string memory _name) public onlyOwner {\n        require(testTokens[_name] != address(0), \"Token does not exist\");\n        delete testTokens[_name];\n        delete testTokenSymbols[_name]; // Also remove the token symbol\n    }\n\n    // The function that allows anyone to request tokens from the faucet\n    function requestTokens(string memory _token) public {\n        require(testTokens[_token] != address(0), \"Token does not exist\");\n        IERC20 token = IERC20(testTokens[_token]);\n        require(token.balanceOf(address(this)) >= amount, \"Insufficient faucet balance\");\n        token.transfer(msg.sender, amount);\n        emit TokensSent(msg.sender, _token, amount);\n    }\n}\n",
  "sourcePath": "/home/debinum/Projects/test-token-faucet-1st/test-token-faucet/contracts/Faucet.sol",
  "compiler": {
    "name": "solc",
    "version": "0.8.21+commit.d9974bed.Emscripten.clang"
  },
  "schemaVersion": "3.4.15",
  "updatedAt": "2023-08-29T22:10:26.942Z",
  "networkType": "ethereum",
  "devdoc": {
    "kind": "dev",
    "methods": {},
    "version": 1
  },
  "userdoc": {
    "kind": "user",
    "methods": {},
    "version": 1
  }
}